{
  "contractName": "TestContract",
  "abi": [
    {
      "inputs": [],
      "payable": false,
      "stateMutability": "nonpayable",
      "type": "constructor"
    },
    {
      "anonymous": false,
      "inputs": [
        {
          "indexed": false,
          "internalType": "uint256",
          "name": "a",
          "type": "uint256"
        }
      ],
      "name": "E",
      "type": "event"
    },
    {
      "constant": false,
      "inputs": [
        {
          "internalType": "uint256",
          "name": "num",
          "type": "uint256"
        }
      ],
      "name": "setVar",
      "outputs": [],
      "payable": false,
      "stateMutability": "nonpayable",
      "type": "function"
    }
  ],
  "bytecode": "0x6080604052600560005534801561001557600080fd5b5061014b806100256000396000f3fe608060405234801561001057600080fd5b506004361061002b5760003560e01c80633a885d7914610030575b600080fd5b61005c6004803603602081101561004657600080fd5b810190808035906020019092919050505061005e565b005b600a600054116100d6576040517f08c379a00000000000000000000000000000000000000000000000000000000081526004018080602001828103825260108152602001807f5661726961626c6520746f6f206c6f770000000000000000000000000000000081525060200191505060405180910390fd5b7e2ff0672f372fbe844b353429d4510ea5e43683af134c54f75f789ff57bc0c0816040518082815260200191505060405180910390a1806000819055505056fea265627a7a723158207d618f7428db0ee30d8684ce2cd5f3a38b742cb7b414dd8dffaf6d73466c173e64736f6c634300050b0032",
  "source": "pragma solidity ^0.5.11;\n\ncontract TestContract {\n  uint variable = 5;\n\n  event E(uint a);\n\n  constructor() public {\n  }\n\n  function setVar(uint num) public {\n    require(variable > 10, \"Variable too low\");\n    emit E(num);\n    variable = num;\n  }\n}\n",
  "sourcePath": "/home/mattczernik/Workspace/terminal-projects/truffle-test/contracts/TestContract.sol",
  "compiler": {
    "name": "solc",
    "version": "0.5.11+commit.c082d0b4.Emscripten.clang"
  },
  "schemaVersion": "3.0.16",
  "updatedAt": "2019-12-18T01:22:12.746Z",
  "devdoc": {
    "methods": {}
  },
  "userdoc": {
    "methods": {}
  }
}